:020000040800F2
:10000000D0070020890100084F070008810400087C
:100010004D070008B7020008451000080000000066
:10002000000000000000000000000000090C0008B3
:10003000B9020008000000003F0B00088D0D000809
:10004000A3010008A3010008A3010008A301000800
:10005000A3010008A3010008A3010008A3010008F0
:10006000A3010008A3010008BB020008A3010008C7
:10007000A3010008A3010008A3010008A3010008D0
:10008000A3010008A3010008A3010008A3010008C0
:10009000A3010008A3010008A3010008A3010008B0
:1000A000A3010008A3010008A3010008A3010008A0
:1000B000A3010008A30100081D0E0008A301000809
:1000C000A3010008A3010008A3010008A301000880
:1000D000A3010008650E0008A3010008A3010008A1
:1000E000A3010008A3010008A301000800F002F822
:1000F00000F03AF80AA090E8000C82448344AAF188
:100100000107DA4501D100F02FF8AFF2090EBAE885
:100110000F0013F0010F18BFFB1A43F0010318473B
:100120007015000090150000103A24BF78C878C1FF
:10013000FAD8520724BF30C830C144BF04680C60ED
:10014000704700000023002400250026103A28BF35
:1001500078C1FBD8520728BF30C148BF0B60704739
:100160001FB51FBD10B510BD00F036F81146FFF7E2
:10017000F7FF00F069FF00F054F803B4FFF7F2FF57
:1001800003BC00F055F800000948804709480047C3
:10019000FEE7FEE7FEE7FEE7FEE7FEE7FEE7FEE737
:1001A000FEE7FEE704480549054A064B7047000094
:1001B000910D0008ED000008D0010020D0070020BC
:1001C000D0030020D0030020704770477047000024
:1001D000004870476C0100207546FFF7F9FFAE46F6
:1001E00005006946534620F00700854618B020B543
:1001F000FFF7D8FFBDE820404FF000064FF00007A2
:100200004FF000084FF0000B21F00701AC46ACE8BE
:10021000C009ACE8C009ACE8C009ACE8C0098D462B
:1002200070470446AFF300802046FFF7A6FF0000AA
:1002300001491820ABBEFEE726000200704700000F
:1002400070B50A4B1A78102A0DD060B1084990E8B1
:10025000700001EB0211C06881E87000C860521C98
:100260001A70012070BD002070BD00001400002035
:10027000240000207FB505460C461646002C09D008
:1002800045B14EB1284600F077F8102806D000207E
:1002900004B070BD0020FBE70020F9E78DF80050A6
:1002A0000194029403966846FFF7CAFF08B1012043
:1002B000EEE70020ECE7FEE7704710B5102000F0F5
:1002C00011F8002807D0002000F00DFCBDE8104018
:1002D000102000F001B810BD01490860704700000F
:1002E0001404014001460020054A12680A40044BEC
:1002F00014331B680B4202D0002A00D00120704743
:100300000004014030B51B4A83790168002B2AD0D4
:1003100013688B431360111D0B680468A3430B60C3
:10032000017911440B68046823430B60114C0834B5
:100330002168036899432160231D19680568A94352
:1003400019604179102905D011440A6800680243F8
:100350000A6030BD21680268114321601968006895
:100360000143196030BD0079104402688A4302607D
:1003700030BD00000004014001460020054A02EBA8
:1003800000131B788B4204D0401CC0B21028F6D357
:10039000102070472400002010B58A07120F0F2389
:1003A000934021F00304054921448C689C438C60F0
:1003B0008B68904003438B6010BD0000000001403B
:1003C0002DE9F0410022CC7804F00F03E40601D5BA
:1003D0008C7823430C784FF00F0714F0FF0F4FF089
:1003E000010C1CD005680CFA02F40E882640A642C7
:1003F00011D1960007FA06F825EA080503FA06F86F
:1004000048EA0505CE78282E02D0482E02D002E018
:10041000446100E00461521C082AE4D305600A88A4
:10042000FF2A1ED94568002202F108060CFA06F4DC
:100430000E882640A64210D1960007FA06F825EA53
:10044000080503FA06F848EA0505CE78282E00D1FB
:100450004461CE78482E00D10461521C082AE3D3AF
:100460004560BDE8F0810246002092680A4200D053
:1004700001207047002A01D0016170474161704737
:10048000FEE7000010B54FF480410448FFF7EBFF92
:1004900008B1002010BD012010BD0000000C01407B
:1004A00010B54FF400510448FFF7DDFF08B10020FC
:1004B00010BD012010BD0000000C014010B54FF42C
:1004C00080510448FFF7CFFF08B1002010BD012084
:1004D00010BD0000000C014070B505463A4905EB1F
:1004E000850001EB8004206880470522012105EB8F
:1004F00045030026C8B32079052801D2227170BDBA
:100500000A2802D2401C207170BDA07A98B12289BD
:10051000002AF9D0E18805EB4500C01C914214D2B5
:10052000491C89B2E18022899142EDD1BDE8704039
:10053000C0B200F05DB8A172207C0028E4D1BDE813
:1005400070405B1CD8B200F053B8E17A0029DBD0D0
:10055000217B491CC9B22173E27A9142D4D326731C
:10056000BDE87040C0B200F043B82079052801D939
:10057000227126E010B1401E207122E0A07A0128ED
:100580000BD1A6722174E189607B814205D2E081A2
:1005900026740A35E8B200F02BF8E08910B1217C0E
:1005A000012901D018B10CE0401EE08109E0207C57
:1005B000012806D19B1CD8B200F01AF82674607B83
:1005C000E081E680267370BD24010020074AD17ABD
:1005D000907A814201D100207047505C491CC9B219
:1005E000D1720A29F8D30021D1727047600100202E
:1005F00005498A7A8854887A401CC0B288720A28D1
:1006000001D30020887270476001002010B5FFF709
:10061000DDFF1B4C0C2815D2DFE800F01406150D89
:100620001F1414141414232A0121BDE8104015A22C
:10063000084600F023BA012115A2084600F01EFA70
:100640000120207010BD207820B9012113A2084696
:1006500000F014FA0020207010BDBDE8104000F03A
:10066000B3B80121BDE810400EA2084600F006BA5A
:100670000121BDE810400EA2032000F0FFB90000E8
:10068000200000204B45593120444F574E000000B8
:100690004B455931204C4F4E470000004B455931D6
:1006A000205550004B45593120444F55424C450090
:1006B0004B45593220444F55424C450010B500245B
:1006C0002046FFF709FF641CE4B2032CF8D310BDE9
:1006D000F8B50121082000F033FA48208DF8030016
:1006E0004FF4E040ADF8000003208DF802006946A9
:1006F0001148FFF765FE11480022C2728272002184
:1007000064250226A0F13C041E2301EB810004EBCA
:10071000800005810671C2808272C57202734373C4
:10072000C381491CC9B20329EFD30548206005489D
:1007300060610548A062F8BD000C01406001002026
:1007400085040008A1040008BD040008FEE7704706
:1007500070B50F23C27801260178002A1ED0144AF2
:10076000126802F4E062C2F5E062120AC2F1040407
:10077000D3404578A54082781A402A43120101F1FE
:10078000E02181F80024007800F01F018E4040092C
:10079000800000F1E020C0F8006170BD01F01F0092
:1007A00086404809800000F1E020C0F8806170BDFB
:1007B0000CED00E002490843024908607047000060
:1007C0000000FA050CED00E070B500250021284678
:1007D00000F0EEF80024002000F074F9641CE4B28C
:1007E000802CF8D36D1CEDB2082DEFD370BD000046
:1007F00038B50121082000F0A3F914208DF803007A
:1008000003208DF802004020ADF800000B4C694633
:100810002046FFF7D5FD8021ADF80010694620463F
:10082000FFF7CEFD012240212046FFF723FE0122E3
:1008300080212046FFF71EFE38BD0000000C01405D
:100840002DE9F04106460024114D802727FA04F2D5
:10085000324080212846FFF70DFE01224021284624
:10086000FFF708FE002240212846FFF703FE641C24
:10087000E4B2082CEAD3012240212846FFF7FAFD12
:100880002846BDE8F04100224021FFF7F3BD0000FB
:10089000000C014010B50B4C012280212046FFF7CF
:1008A000E9FD012240212046FFF7E4FD00228021DE
:1008B0002046FFF7DFFD20460022BDE81040402122
:1008C000FFF7D8BD000C014010B5094C0022802173
:1008D0002046FFF7CFFD012240212046FFF7CAFD49
:1008E00020460122BDE810408021FFF7C3BD000073
:1008F000000C014010B500214FF47A720020401C1A
:100900009042FCD3491C9142F8D3FFF771FFAE200F
:1009100000F0C7F8D52000F0C4F8802000F0C1F83E
:10092000A82000F0BEF83F2000F0BBF8D32000F074
:10093000B8F8002000F0B5F8402000F0B2F8A1208F
:1009400000F0AFF8C82000F0ACF8DA2000F0A9F809
:10095000122000F0A6F8812000F0A3F8CF2000F0CC
:10096000A0F8D92000F09DF8F12000F09AF8DB20E3
:1009700000F097F8302000F094F8A42000F091F8EF
:10098000A62000F08EF88D2000F08BF8142000F0E7
:1009900088F8AF2000F085F8BDE81040FFF714BFDD
:1009A0000346012000E05843491E4A1CFBD1704712
:1009B00010B50C4640F0B00000F073F8102040EA8B
:1009C000141000F06EF804F00F00BDE8104000F0C5
:1009D00068B800002DE9F0411546491E461ECF00BB
:1009E0007006F9B2000EFFF7E3FF00240E48203D29
:1009F00000EB0515285D00F065F8641CE4B2082CD6
:100A0000F8D3012000EB4600F9B2C0B2FFF7D0FFE7
:100A100000242819007A00F055F8641CE4B2082C70
:100A2000F7D3BDE8F0810000A01000082DE9F047E1
:100A300081460E4690461F4600241BE0391B491E86
:100A40001020FFF7ADFFB8FBF0F000F00F050A2D06
:100A500007D230193035C1B2EAB24846FFF7BAFFC3
:100A600006E030193735C1B2EAB24846FFF7B2FFA7
:100A7000641CE4B2BC42E1D3BDE8F0872DE9F0414B
:100A800007460D461646002406E02819C1B238462E
:100A9000FFF7A0FF641CE4B2325D002AF5D1BDE887
:100AA000F08110B50446FFF7F5FE7820FFF7C8FE89
:100AB0000020FFF7C5FE2046FFF7C2FEBDE810404C
:100AC000FFF702BF10B50446FFF7E4FE7820FFF7FA
:100AD000B7FE4020FFF7B4FE2046FFF7B1FEBDE8A9
:100AE0001040FFF7F1BE3EB50024002821D00421BC
:100AF0000120FFF751FC102001908DF808400C20D8
:100B00008DF8090001248DF80A401020FFF7E4FB5E
:100B10004FF4C060FFF74EFE0A208DF800008DF8FC
:100B200001408DF802408DF803406846FFF710FE43
:100B300001E08DF80A4001A8FFF7E4FB3EBD7047D5
:100B4000054A002903D09169014391617047916979
:100B500081439161704700000010024010B5264AA1
:100B6000516801F00C01254B002927D0042927D01A
:100B7000082927D00360516801F0F0010909204BD2
:100B80005C5C0168E1404160546804F4E064240A5C
:100B90001C5D21FA04F48460546804F46054E40A8F
:100BA0001B5DD940C160526802F44042920B144B65
:100BB0001B1F9A5CB1FBF2F1016110BD0360DAE723
:100BC0000360D8E7516801F47011536803F480336F
:100BD000022404EB914133B153689B0307D5094BC1
:100BE00059430160C7E7074B59430160C3E7034B13
:100BF00059430160BFE700000010024000127A0074
:100C00000400002000093D0070470000044881787E
:100C1000012901D000207047002181700120704718
:100C20001500002030B587B001218803FFF788FF49
:100C300001210420FFF784FF18208DF81B004FF4DA
:100C40000070ADF8180003248DF81A40204D06A955
:100C50002846FFF7B5FB48218DF81B102915ADF884
:100C600018108DF81A4006A92846FFF7A9FB4FF483
:100C7000165002900020ADF814000C21ADF81210AF
:100C8000ADF81000ADF80E00ADF80C00114C02A943
:100C9000204600F075F9012240F22551204600F06F
:100CA00053F94FF4A060FFF785FD25218DF804105E
:100CB00001218DF807108DF805108DF8061001A898
:100CC000FFF746FD0121204600F012F907B030BDC4
:100CD0000008014000380140AFF300800CB500224D
:100CE000019200922748016841F4803101604FF47D
:100CF000A063016801F4003100910199491C019140
:100D0000009911B901999942F3D10168890302D57B
:100D10000121009100E000920099012930D11A4987
:100D20000A6842F010020A600A6822F003020A60B0
:100D30000A6842F002020A6041684160416841600D
:100D4000416841F480614160416821F47C11416057
:100D5000416841F4E8114160016841F0807101602F
:100D600001688901FCD5416821F0030141604168B7
:100D700041F0020141604168C1F381010229FAD1C9
:100D80000CBD0000001002400020024000F02AB814
:100D900010B50F48016841F00101016041680D4A3A
:100DA0001140416001680C4A11400160016821F462
:100DB00080210160416821F4FE0141604FF41F0170
:100DC0008160FFF789FF05494FF00060086010BDA2
:100DD000001002400000FFF8FFFFF6FE08ED00E003
:100DE000FFF76CBC70B500240A4D0B4E0DE005EB0F
:100DF00004108168491E816011B14268914203D993
:100E000041688160C0688047641C30788442EEDBB2
:100E100070BD0000240000201400002010B5084C14
:100E20000121204600F011F8002807D0FFF746FC0A
:100E30002046BDE81040012100F004B810BD0000BC
:100E400000080040C9430182704702460020138A0F
:100E50000B4092890A40002B02D0002A00D00120CA
:100E6000704700002DE9F0411B4F40F225563146F6
:100E7000384600F049F810B3384600F0DFF8C2B247
:100E8000164C00250120237823B1012B07D0022B1B
:100E900015D111E0FF2A12D1207065700FE00F48C4
:100EA0006378C01DC2545B1CDAB26270042A06D398
:100EB00065700220207002E0FE2A0AD025703146BB
:100EC000384600F00DF831463846BDE8F04100F0F4
:100ED00007B8A0702570F2E7003801401500002027
:100EE00040F66A120A0A01219140C9430180704705
:100EF000002904D0818941F40051818170478189A2
:100F000021F400518181704770B5002440F66A12C7
:100F1000C1F3421301F01F05012606FA05F2012B69
:100F20000CD0022B0DD0838A1340090A8E40008812
:100F300030400BB100B10124204670BD83891340BD
:100F4000F3E7038A1340F0E710B540F66A13C1F3E4
:100F5000421301F01F040121A140012B07D0022BF5
:100F600007D014303AB102680A43026010BD0C3059
:100F7000F8E71030F6E702688A43026010BD00000F
:100F800030B585B004460D46208A4CF6FF71084006
:100F9000E98801432182A0894EF6F3110840A9880F
:100FA0002A8911436A8902431143A181A08A4FF61D
:100FB000FF410840A9890143A1826846FFF7CEFDA1
:100FC0001D48844201D1039800E00298A1890904D8
:100FD00008D500EBC00101EB001029684900B0FB07
:100FE000F1F007E000EBC00101EB00102968890077
:100FF000B0FBF1F06422B0FBF2F109010B096FF0D4
:1010000018056B4300EB8300A3891D044FF03203E6
:1010100007D503EBC000B0FBF2F000F00700084377
:1010200006E003EB0010B0FBF2F000F00F00084305
:10103000208105B030BD0000003801408088C0F339
:1010400008007047FEE70000FFF754FC4FF0E02077
:101050000F4941610F4AF021117000218161072180
:101060000161FFF735FBFFF7DDFD0B4A0A21012087
:10107000FFF700F9094CFFF7C9FAFFF7C7FD012890
:10108000F9D10121227808230846FFF7CFFCF2E7C7
:101090003F19010023ED00E0E10D00081C000020D5
:1010A0000000000000000000000000000000000040
:1010B000000000F8000000000000003330000000D5
:1010C00000100C06100C06000000000000000000DC
:1010D00040C07840C0784000043F04043F0404004E
:1010E000007088FC08300000001820FF211E00005E
:1010F000F008F000E018000000211C031E211E0073
:1011000000F00888700000001E21232419272110F8
:1011100010160E000000000000000000000000009B
:10112000000000E018040200000000071820400042
:1011300000020418E0000000004020180700000032
:10114000404080F0804040000202010F0102020096
:10115000000000F0000000000101011F010101007A
:10116000000000000000000080B0700000000000DF
:101170000000000000000000000101010101010168
:1011800000000000000000000030300000000000FF
:1011900000000000806018040060180601000000D4
:1011A00000E010080810E000000F102020100F00D1
:1011B000001010F8000000000020203F2020000058
:1011C00000700808088870000030282422213000B0
:1011D00000300888884830000018202020110E00B8
:1011E0000000C02010F8000000070424243F240061
:1011F00000F80888880808000019212020110E0036
:1012000000E0108888180000000F112020110E0047
:1012100000380808C83808000000003F000000003F
:101220000070880808887000001C222121221C0000
:1012300000E010080810E0000000312222110F0029
:10124000000000C0C00000000000003030000000BE
:10125000000000800000000000008060000000002E
:101260000000804020100800000102040810200047
:101270004040404040404000040404040404040092
:101280000008102040800000002010080402010027
:10129000007048080808F000000000303601000027
:1012A000C030C828E810E0000718272423140B00DA
:1012B0000000C038E0000000203C23020227382054
:1012C00008F8888888700000203F202020110E0038
:1012D000C03008080808380007182020201008002F
:1012E00008F808080810E000203F202020100F0018
:1012F00008F88888E8081000203F202023201800E4
:1013000008F88888E8081000203F2000030000004B
:10131000C03008080838000007182020221E0200EC
:1013200008F808000008F808203F210101213F20AB
:10133000000808F8080800000020203F20200000D6
:1013400000000808F8080800C08080807F000000C6
:1013500008F888C028180800203F200126382000FF
:1013600008F8080000000000203F20202020300066
:1013700008F8F800F8F80800203F003F003F200080
:1013800008F830C00008F808203F200007183F0088
:10139000E01008080810E0000F10202020100F00B7
:1013A00008F808080808F000203F210101010000AA
:1013B000E01008080810E0000F18242438504F00EF
:1013C00008F8888888887000203F2000030C3020AF
:1013D00000708808080838000038202121221C00ED
:1013E000180808F8080818000000203F2000000036
:1013F00008F808000008F808001F202020201F001F
:101400000878880000C83808000007380E0100007E
:10141000F80800F80008F800033C0700073C030048
:10142000081868808068180820302C03032C3020AE
:101430000838C800C83808000000203F200000001D
:1014400010080808C8380800203826212020180075
:10145000000000FE020202000000007F4040400049
:10146000000C30C000000000000000010638C00081
:1014700000020202FE000000004040407F00000029
:10148000000004020202040000000000000000004E
:10149000000000000000000080808080808080804C
:1014A0000002020400000000000000000000000034
:1014B00000008080808000000019242222223F202A
:1014C00008F8008080000000003F112020110E006D
:1014D0000000008080800000000E112020201100FC
:1014E000000000808088F800000E112020103F20AE
:1014F0000000808080800000001F22222222130032
:10150000008080F0888888180020203F202000007C
:101510000000808080808000006B94949493600031
:1015200008F8008080800000203F210000203F203C
:1015300000809898000000000020203F202000003C
:10154000000000809898000000C08080807F00002C
:1015500008F8000080808000203F24022D30200009
:10156000000808F8000000000020203F20200000B4
:101570008080808080808000203F20003F20003FCE
:101580008080008080800000203F210000203F20DC
:101590000000808080800000001F202020201F008D
:1015A000808000808000000080FFA12020110E00BC
:1015B0000000008080808000000E112020A0FF80AD
:1015C000808080008080800020203F21200001005A
:1015D00000008080808080000033242424241900AF
:1015E000008080E0808000000000001F20200000BC
:1015F0008080000000808000001F202020103F20FD
:10160000808080000080808000010E30080601008C
:1016100080800080008080800F300C030C300F0031
:1016200000808000808080000020312E0E3120005C
:10163000808080000080808080818E70180601008C
:1016400000808080808080000021302C22213000AA
:1016500000000000807C020200000000003F4040CB
:1016600000000000FF00000000000000FF0000007C
:101670000002027C800000000040403F00000000AB
:101680000006010102020404000000000000000046
:10169000B016000800000020240000002801000807
:1016A000D416000824000020AC0700004401000804
:1016B0000204060800000000010203040102030402
:1016C00006070809000000000000000000000000FC
:0416D0000000000016
:04000005080000ED02
:00000001FF
